{
  "contractName": "SimpleStorage",
  "abi": [
    {
      "inputs": [],
      "payable": false,
      "stateMutability": "nonpayable",
      "type": "constructor"
    },
    {
      "anonymous": false,
      "inputs": [
        {
          "indexed": false,
          "internalType": "address",
          "name": "sender",
          "type": "address"
        },
        {
          "indexed": false,
          "internalType": "uint256",
          "name": "newValue",
          "type": "uint256"
        }
      ],
      "name": "LogSet",
      "type": "event"
    },
    {
      "constant": true,
      "inputs": [],
      "name": "groupIdGenerator",
      "outputs": [
        {
          "internalType": "uint256",
          "name": "",
          "type": "uint256"
        }
      ],
      "payable": false,
      "stateMutability": "view",
      "type": "function"
    },
    {
      "constant": true,
      "inputs": [],
      "name": "memberIdGenerator",
      "outputs": [
        {
          "internalType": "uint256",
          "name": "",
          "type": "uint256"
        }
      ],
      "payable": false,
      "stateMutability": "view",
      "type": "function"
    },
    {
      "constant": false,
      "inputs": [
        {
          "internalType": "uint256",
          "name": "x",
          "type": "uint256"
        }
      ],
      "name": "set",
      "outputs": [],
      "payable": false,
      "stateMutability": "nonpayable",
      "type": "function"
    },
    {
      "constant": true,
      "inputs": [],
      "name": "get",
      "outputs": [
        {
          "internalType": "uint256",
          "name": "",
          "type": "uint256"
        }
      ],
      "payable": false,
      "stateMutability": "view",
      "type": "function"
    },
    {
      "constant": true,
      "inputs": [],
      "name": "readOrganizationName",
      "outputs": [
        {
          "internalType": "string",
          "name": "",
          "type": "string"
        }
      ],
      "payable": false,
      "stateMutability": "view",
      "type": "function"
    },
    {
      "constant": false,
      "inputs": [
        {
          "internalType": "string",
          "name": "memberName",
          "type": "string"
        },
        {
          "internalType": "address",
          "name": "memberAddress",
          "type": "address"
        }
      ],
      "name": "createMember",
      "outputs": [
        {
          "internalType": "uint256",
          "name": "",
          "type": "uint256"
        }
      ],
      "payable": false,
      "stateMutability": "nonpayable",
      "type": "function"
    },
    {
      "constant": false,
      "inputs": [
        {
          "internalType": "string",
          "name": "groupName",
          "type": "string"
        },
        {
          "internalType": "uint256",
          "name": "subGroupOf",
          "type": "uint256"
        }
      ],
      "name": "createGroup",
      "outputs": [
        {
          "internalType": "uint256",
          "name": "",
          "type": "uint256"
        }
      ],
      "payable": false,
      "stateMutability": "nonpayable",
      "type": "function"
    },
    {
      "constant": false,
      "inputs": [
        {
          "internalType": "uint256",
          "name": "memberNumber",
          "type": "uint256"
        },
        {
          "internalType": "uint256",
          "name": "groupNumber",
          "type": "uint256"
        }
      ],
      "name": "joinGroup",
      "outputs": [],
      "payable": false,
      "stateMutability": "nonpayable",
      "type": "function"
    },
    {
      "constant": true,
      "inputs": [
        {
          "internalType": "uint256",
          "name": "groupNumber",
          "type": "uint256"
        }
      ],
      "name": "readGroup",
      "outputs": [
        {
          "internalType": "uint256",
          "name": "",
          "type": "uint256"
        },
        {
          "internalType": "uint256",
          "name": "",
          "type": "uint256"
        },
        {
          "internalType": "string",
          "name": "",
          "type": "string"
        },
        {
          "internalType": "uint256",
          "name": "",
          "type": "uint256"
        }
      ],
      "payable": false,
      "stateMutability": "view",
      "type": "function"
    },
    {
      "constant": true,
      "inputs": [
        {
          "internalType": "uint256",
          "name": "memberNumber",
          "type": "uint256"
        }
      ],
      "name": "readMember",
      "outputs": [
        {
          "internalType": "uint256",
          "name": "",
          "type": "uint256"
        },
        {
          "internalType": "string",
          "name": "",
          "type": "string"
        },
        {
          "internalType": "address",
          "name": "",
          "type": "address"
        }
      ],
      "payable": false,
      "stateMutability": "view",
      "type": "function"
    },
    {
      "constant": true,
      "inputs": [
        {
          "internalType": "uint256",
          "name": "groupNumber",
          "type": "uint256"
        }
      ],
      "name": "readMemberListInGroup",
      "outputs": [
        {
          "internalType": "uint256[]",
          "name": "",
          "type": "uint256[]"
        }
      ],
      "payable": false,
      "stateMutability": "view",
      "type": "function"
    },
    {
      "constant": false,
      "inputs": [
        {
          "internalType": "uint256",
          "name": "memberNumber",
          "type": "uint256"
        },
        {
          "internalType": "bool",
          "name": "yesIfTrue",
          "type": "bool"
        }
      ],
      "name": "executeVote",
      "outputs": [],
      "payable": false,
      "stateMutability": "nonpayable",
      "type": "function"
    },
    {
      "constant": true,
      "inputs": [
        {
          "internalType": "uint256",
          "name": "groupNumber",
          "type": "uint256"
        }
      ],
      "name": "countVotes",
      "outputs": [
        {
          "internalType": "bool",
          "name": "",
          "type": "bool"
        }
      ],
      "payable": false,
      "stateMutability": "view",
      "type": "function"
    }
  ],
  "bytecode": "0x60806040526001600455600160055534801561001a57600080fd5b506040518060400160405280600681526020017f476f6f676c6500000000000000000000000000000000000000000000000000008152506001600001908051906020019061006992919061006f565b50610114565b828054600181600116156101000203166002900490600052602060002090601f016020900481019282601f106100b057805160ff19168380011785556100de565b828001600101855582156100de579182015b828111156100dd5782518255916020019190600101906100c2565b5b5090506100eb91906100ef565b5090565b61011191905b8082111561010d5760008160009055506001016100f5565b5090565b90565b610db3806101236000396000f3fe608060405234801561001057600080fd5b50600436106100cf5760003560e01c80636b42cf4d1161008c578063b600892611610066578063b600892614610482578063e367fc6a14610505578063f3eabc07146105de578063f8362b09146105fc576100cf565b80636b42cf4d146102945780636d4ce63c1461038357806391877e9c146103a1576100cf565b80631720e2bf146100d45780631840f0ca1461010e5780631a0c750c1461015457806320ce1a6a1461018c5780633c7fc59d146101aa57806360fe47b114610266575b600080fd5b61010c600480360360408110156100ea57600080fd5b810190808035906020019092919080351515906020019092919050505061067f565b005b61013a6004803603602081101561012457600080fd5b81019080803590602001909291905050506106cc565b604051808215151515815260200191505060405180910390f35b61018a6004803603604081101561016a57600080fd5b810190808035906020019092919080359060200190929190505050610785565b005b6101946107f3565b6040518082815260200191505060405180910390f35b6101d6600480360360208110156101c057600080fd5b81019080803590602001909291905050506107f9565b6040518085815260200184815260200180602001838152602001828103825284818151815260200191508051906020019080838360005b8381101561022857808201518184015260208101905061020d565b50505050905090810190601f1680156102555780820380516001836020036101000a031916815260200191505b509550505050505060405180910390f35b6102926004803603602081101561027c57600080fd5b8101908080359060200190929190505050610904565b005b61036d600480360360408110156102aa57600080fd5b81019080803590602001906401000000008111156102c757600080fd5b8201836020820111156102d957600080fd5b803590602001918460018302840111640100000000831117156102fb57600080fd5b91908080601f016020809104026020016040519081016040528093929190818152602001838380828437600081840152601f19601f820116905080830192505050505050509192919290803573ffffffffffffffffffffffffffffffffffffffff169060200190929190505050610979565b6040518082815260200191505060405180910390f35b61038b610a13565b6040518082815260200191505060405180910390f35b6103cd600480360360208110156103b757600080fd5b8101908080359060200190929190505050610a1c565b60405180848152602001806020018373ffffffffffffffffffffffffffffffffffffffff1673ffffffffffffffffffffffffffffffffffffffff168152602001828103825284818151815260200191508051906020019080838360005b8381101561044557808201518184015260208101905061042a565b50505050905090810190601f1680156104725780820380516001836020036101000a031916815260200191505b5094505050505060405180910390f35b6104ae6004803603602081101561049857600080fd5b8101908080359060200190929190505050610b28565b6040518080602001828103825283818151815260200191508051906020019060200280838360005b838110156104f15780820151818401526020810190506104d6565b505050509050019250505060405180910390f35b6105c86004803603604081101561051b57600080fd5b810190808035906020019064010000000081111561053857600080fd5b82018360208201111561054a57600080fd5b8035906020019184600183028401116401000000008311171561056c57600080fd5b91908080601f016020809104026020016040519081016040528093929190818152602001838380828437600081840152601f19601f82011690508083019250505050505050919291929080359060200190929190505050610b9d565b6040518082815260200191505060405180910390f35b6105e6610bfc565b6040518082815260200191505060405180910390f35b610604610c02565b6040518080602001828103825283818151815260200191508051906020019080838360005b83811015610644578082015181840152602081019050610629565b50505050905090810190601f1680156106715780820380516001836020036101000a031916815260200191505b509250505060405180910390f35b816006600084815260200190815260200160002060000181905550806006600084815260200190815260200160002060010160006101000a81548160ff0219169083151502179055505050565b60008060009050600080905060606106e385610b28565b905060008090505b8151811015610763576001151561071483838151811061070757fe5b6020026020010151610ca7565b151514156107255783806001019450505b6000151561074583838151811061073857fe5b6020026020010151610ca7565b151514156107565782806001019350505b80806001019150506106eb565b50818311156107785760019350505050610780565b600093505050505b919050565b600180016000828152602001908152602001600020600201829080600181540180825580915050906001820390600052602060002001600090919290919091505550600180016000828152602001908152602001600020600301600081548092919060010191905055505050565b60045481565b6000806060600080600180016000878152602001908152602001600020600001549050600060018001600088815260200190815260200160002060030154905060606001800160008981526020019081526020016000206001018054600181600116156101000203166002900480601f0160208091040260200160405190810160405280929190818152602001828054600181600116156101000203166002900480156108e75780601f106108bc576101008083540402835291602001916108e7565b820191906000526020600020905b8154815290600101906020018083116108ca57829003601f168201915b505050505090508783828496509650965096505050509193509193565b806000819055507ffa687fbbbd114f405c78850b508cd15ded5f4d9400cf4190a3093b0af68de8c13382604051808373ffffffffffffffffffffffffffffffffffffffff1673ffffffffffffffffffffffffffffffffffffffff1681526020018281526020019250505060405180910390a150565b6000806001600201600060045481526020019081526020016000209050838160000190805190602001906109ae929190610cd9565b50828160010160006101000a81548173ffffffffffffffffffffffffffffffffffffffff021916908373ffffffffffffffffffffffffffffffffffffffff16021790555060046000815480929190600101919050555060016004540391505092915050565b60008054905090565b6000606060006060600160020160008681526020019081526020016000206000018054600181600116156101000203166002900480601f016020809104026020016040519081016040528092919081815260200182805460018160011615610100020316600290048015610ad15780601f10610aa657610100808354040283529160200191610ad1565b820191906000526020600020905b815481529060010190602001808311610ab457829003601f168201915b5050505050905060006001600201600087815260200190815260200160002060010160009054906101000a900473ffffffffffffffffffffffffffffffffffffffff16905085828294509450945050509193909250565b606080600180016000848152602001908152602001600020600201805480602002602001604051908101604052809291908181526020018280548015610b8d57602002820191906000526020600020905b815481526020019060010190808311610b79575b5050505050905080915050919050565b6000806001800160006004548152602001908152602001600020905083816001019080519060200190610bd1929190610cd9565b5082816000018190555060056000815480929190600101919050555060016005540391505092915050565b60055481565b606060016000018054600181600116156101000203166002900480601f016020809104026020016040519081016040528092919081815260200182805460018160011615610100020316600290048015610c9d5780601f10610c7257610100808354040283529160200191610c9d565b820191906000526020600020905b815481529060010190602001808311610c8057829003601f168201915b5050505050905090565b6000806006600084815260200190815260200160002060010160009054906101000a900460ff16905080915050919050565b828054600181600116156101000203166002900490600052602060002090601f016020900481019282601f10610d1a57805160ff1916838001178555610d48565b82800160010185558215610d48579182015b82811115610d47578251825591602001919060010190610d2c565b5b509050610d559190610d59565b5090565b610d7b91905b80821115610d77576000816000905550600101610d5f565b5090565b9056fea265627a7a72315820d9a0bd4d4c14d771f38b1d1a4db9cdf95d3fb14fcb5545da9c406c0be8b4a93c64736f6c634300050c0032",
  "source": "pragma solidity >=0.4.21 <0.7.0;\n\ncontract SimpleStorage {\n  uint storedData;\n\n  event LogSet(address sender, uint newValue);\n\n  function set(uint x) public {\n    storedData = x;\n    emit LogSet(msg.sender, x);\n  }\n\n  function get() public view returns (uint) {\n    return storedData;\n  }\n\n      struct Organization {\n        string organizationName;\n        mapping(uint => Group) groups;\n        mapping(uint => Member) members;\n    }\n\n    Organization thisOrganization;\n    \n    // @dev Sets serviceProvider to the address that instantiated the project\n    // @dev Sets the appropriate project details\n    // when going back to vscode: string memory organizationName, thisOrganization.name = organizationName\n\n    constructor()\n        public\n    {\n        thisOrganization.organizationName = \"Google\";\n    }\n    \n    function readOrganizationName() \n    public\n    view\n    returns(string memory)\n    {\n        return thisOrganization.organizationName;        \n    }\n    \n    struct Member {\n\t    string memberName;\n\t    address memberAddress;\n    }\n\n    // @dev Used to track member numbers\n    uint public memberIdGenerator = 1;\n\n    function createMember(string memory memberName, address memberAddress)\n        public\n        returns(uint)\n    {\n        // require that member address not already belong to a member\n        Member storage newMember = thisOrganization.members[memberIdGenerator];\n        newMember.memberName = memberName;\n        newMember.memberAddress = memberAddress;\n        memberIdGenerator++;\n        return memberIdGenerator - 1;\n    }\n\n    struct Group {\n        uint subGroupOf;\n        string groupName;\n        uint[] membersInGroup;\n        uint numberOfMembersInGroup;\n    }\n\n    // @dev Used to track group numbers\n    uint public groupIdGenerator = 1;\n    \n    function createGroup(string memory groupName, uint subGroupOf)\n        public\n        returns(uint)\n    {\n        Group storage newGroup = thisOrganization.groups[memberIdGenerator];\n        newGroup.groupName = groupName;\n        newGroup.subGroupOf = subGroupOf;\n        groupIdGenerator++;\n        return groupIdGenerator - 1;\n    }\n    \n    // @param number of member who will be joining\n    // @param number of group that member will join\n    function joinGroup(uint memberNumber, uint groupNumber)\n    public\n    {\n        thisOrganization.groups[groupNumber].membersInGroup.push(memberNumber);\n        thisOrganization.groups[groupNumber].numberOfMembersInGroup++;\n    }\n\n    function readGroup(uint groupNumber)\n    public\n    view\n    returns(uint, uint, string memory, uint) // group number, subGroupOf, group name, number of members in group\n    {\n        uint subGroupOf = thisOrganization.groups[groupNumber].subGroupOf;\n        uint numberOfMembersInGroup = thisOrganization.groups[groupNumber].numberOfMembersInGroup;\n        string memory groupName = thisOrganization.groups[groupNumber].groupName;\n        return (groupNumber, subGroupOf, groupName, numberOfMembersInGroup);\n    }\n\n    function readMember(uint memberNumber)\n    public\n    view\n    returns (uint, string memory, address)\n    {\n        string memory memberName = thisOrganization.members[memberNumber].memberName;\n        address memberAddress = thisOrganization.members[memberNumber].memberAddress;\n        return (memberNumber, memberName, memberAddress);\n    }\n    \n    \n    function readMemberListInGroup(uint groupNumber)\n    public\n    view\n    returns (uint[] memory)\n    {\n        uint[] memory membersInGroup = thisOrganization.groups[groupNumber].membersInGroup;\n        return(membersInGroup);\n    }\n    \n    struct Vote {\n        uint memberNumber;\n        bool yesIfTrue;\n    }\n    \n    mapping (uint => Vote) votes;\n    \n    //return error if member has already voted\n    function executeVote(uint memberNumber, bool yesIfTrue)\n    public\n    {\n        votes[memberNumber].memberNumber = memberNumber;\n        votes[memberNumber].yesIfTrue = yesIfTrue;\n    }\n    \n    // i think this is not needed in UI, just for testing\n    // return error if member has not voted\n    function readMemberVote(uint memberNumber)\n    internal\n    view\n    returns (bool)\n    {\n        bool memberVote = votes[memberNumber].yesIfTrue;\n        return memberVote;\n    }\n\n    // uses for loop to count votes from votes mapping\n    // if majority in favor returns true\n    // called by splitGroup function\n    // i think this is not needed in UI, just for testing\n    function countVotes(uint groupNumber)\n    public\n    view\n    returns(bool)\n    {\n        uint yesVote = 0;\n        uint noVote = 0;\n        uint[] memory membersInGroup = readMemberListInGroup(groupNumber);\n        for (uint i=0; i < membersInGroup.length; i++) {\n            if (readMemberVote(membersInGroup[i]) == true) {\n                yesVote++;\n            }\n            if (readMemberVote(membersInGroup[i]) == false) {\n                noVote++;\n            }\n            \n        }\n        if (yesVote > noVote) {\n            return true;\n        } else {\n            return false;            \n        }\n    }\n    \n\n}\n",
  "sourcePath": "/Users/jerryfireman/Projects/office-hours-jan-16-2020/contracts/SimpleStorage.sol",
  "compiler": {
    "name": "solc",
    "version": "0.5.12+commit.7709ece9.Emscripten.clang"
  },
  "schemaVersion": "3.0.19",
  "updatedAt": "2020-02-15T18:03:55.140Z",
  "networkType": "ethereum",
  "devdoc": {
    "methods": {}
  },
  "userdoc": {
    "methods": {}
  }
}