{
  "contractName": "SimpleStorage",
  "abi": [
    {
      "inputs": [],
      "payable": false,
      "stateMutability": "nonpayable",
      "type": "constructor"
    },
    {
      "anonymous": false,
      "inputs": [
        {
          "indexed": false,
          "internalType": "address",
          "name": "sender",
          "type": "address"
        },
        {
          "indexed": false,
          "internalType": "uint256",
          "name": "newValue",
          "type": "uint256"
        }
      ],
      "name": "LogSet",
      "type": "event"
    },
    {
      "constant": true,
      "inputs": [],
      "name": "groupIdGenerator",
      "outputs": [
        {
          "internalType": "uint256",
          "name": "",
          "type": "uint256"
        }
      ],
      "payable": false,
      "stateMutability": "view",
      "type": "function"
    },
    {
      "constant": true,
      "inputs": [],
      "name": "memberIdGenerator",
      "outputs": [
        {
          "internalType": "uint256",
          "name": "",
          "type": "uint256"
        }
      ],
      "payable": false,
      "stateMutability": "view",
      "type": "function"
    },
    {
      "constant": false,
      "inputs": [
        {
          "internalType": "uint256",
          "name": "x",
          "type": "uint256"
        }
      ],
      "name": "set",
      "outputs": [],
      "payable": false,
      "stateMutability": "nonpayable",
      "type": "function"
    },
    {
      "constant": true,
      "inputs": [],
      "name": "get",
      "outputs": [
        {
          "internalType": "uint256",
          "name": "",
          "type": "uint256"
        }
      ],
      "payable": false,
      "stateMutability": "view",
      "type": "function"
    },
    {
      "constant": true,
      "inputs": [],
      "name": "readOrganizationName",
      "outputs": [
        {
          "internalType": "string",
          "name": "",
          "type": "string"
        }
      ],
      "payable": false,
      "stateMutability": "view",
      "type": "function"
    },
    {
      "constant": false,
      "inputs": [
        {
          "internalType": "string",
          "name": "memberName",
          "type": "string"
        },
        {
          "internalType": "address",
          "name": "memberAddress",
          "type": "address"
        }
      ],
      "name": "createMember",
      "outputs": [
        {
          "internalType": "uint256",
          "name": "",
          "type": "uint256"
        }
      ],
      "payable": false,
      "stateMutability": "nonpayable",
      "type": "function"
    },
    {
      "constant": false,
      "inputs": [
        {
          "internalType": "string",
          "name": "groupName",
          "type": "string"
        },
        {
          "internalType": "uint256",
          "name": "subGroupOf",
          "type": "uint256"
        }
      ],
      "name": "createGroup",
      "outputs": [
        {
          "internalType": "uint256",
          "name": "",
          "type": "uint256"
        }
      ],
      "payable": false,
      "stateMutability": "nonpayable",
      "type": "function"
    },
    {
      "constant": false,
      "inputs": [
        {
          "internalType": "uint256",
          "name": "memberNumber",
          "type": "uint256"
        },
        {
          "internalType": "uint256",
          "name": "groupNumber",
          "type": "uint256"
        }
      ],
      "name": "joinGroup",
      "outputs": [],
      "payable": false,
      "stateMutability": "nonpayable",
      "type": "function"
    },
    {
      "constant": true,
      "inputs": [
        {
          "internalType": "uint256",
          "name": "groupNumber",
          "type": "uint256"
        }
      ],
      "name": "readGroup",
      "outputs": [
        {
          "internalType": "uint256",
          "name": "",
          "type": "uint256"
        },
        {
          "internalType": "uint256",
          "name": "",
          "type": "uint256"
        },
        {
          "internalType": "string",
          "name": "",
          "type": "string"
        },
        {
          "internalType": "uint256",
          "name": "",
          "type": "uint256"
        }
      ],
      "payable": false,
      "stateMutability": "view",
      "type": "function"
    },
    {
      "constant": true,
      "inputs": [
        {
          "internalType": "uint256",
          "name": "memberNumber",
          "type": "uint256"
        }
      ],
      "name": "readMember",
      "outputs": [
        {
          "internalType": "uint256",
          "name": "",
          "type": "uint256"
        },
        {
          "internalType": "string",
          "name": "",
          "type": "string"
        },
        {
          "internalType": "address",
          "name": "",
          "type": "address"
        }
      ],
      "payable": false,
      "stateMutability": "view",
      "type": "function"
    },
    {
      "constant": true,
      "inputs": [
        {
          "internalType": "uint256",
          "name": "groupNumber",
          "type": "uint256"
        }
      ],
      "name": "readMemberListInGroup",
      "outputs": [
        {
          "internalType": "uint256[]",
          "name": "",
          "type": "uint256[]"
        }
      ],
      "payable": false,
      "stateMutability": "view",
      "type": "function"
    },
    {
      "constant": false,
      "inputs": [
        {
          "internalType": "uint256",
          "name": "memberNumber",
          "type": "uint256"
        },
        {
          "internalType": "bool",
          "name": "yesIfTrue",
          "type": "bool"
        }
      ],
      "name": "executeVote",
      "outputs": [],
      "payable": false,
      "stateMutability": "nonpayable",
      "type": "function"
    },
    {
      "constant": true,
      "inputs": [
        {
          "internalType": "uint256",
          "name": "memberNumber",
          "type": "uint256"
        }
      ],
      "name": "readMemberVote",
      "outputs": [
        {
          "internalType": "bool",
          "name": "",
          "type": "bool"
        }
      ],
      "payable": false,
      "stateMutability": "view",
      "type": "function"
    },
    {
      "constant": true,
      "inputs": [
        {
          "internalType": "uint256",
          "name": "groupNumber",
          "type": "uint256"
        }
      ],
      "name": "countVotes",
      "outputs": [
        {
          "internalType": "bool",
          "name": "",
          "type": "bool"
        }
      ],
      "payable": false,
      "stateMutability": "view",
      "type": "function"
    },
    {
      "constant": false,
      "inputs": [
        {
          "internalType": "uint256",
          "name": "oldGroupNumber",
          "type": "uint256"
        },
        {
          "internalType": "uint256[]",
          "name": "membersToSplit",
          "type": "uint256[]"
        },
        {
          "internalType": "uint256",
          "name": "newGroupNumber",
          "type": "uint256"
        }
      ],
      "name": "splitGroup",
      "outputs": [],
      "payable": false,
      "stateMutability": "nonpayable",
      "type": "function"
    }
  ],
  "bytecode": "0x6080604052600160045560016005553480156200001b57600080fd5b506040518060400160405280600681526020017f476f6f676c650000000000000000000000000000000000000000000000000000815250600160000190805190602001906200006c92919062000073565b5062000122565b828054600181600116156101000203166002900490600052602060002090601f016020900481019282601f10620000b657805160ff1916838001178555620000e7565b82800160010185558215620000e7579182015b82811115620000e6578251825591602001919060010190620000c9565b5b509050620000f69190620000fa565b5090565b6200011f91905b808211156200011b57600081600090555060010162000101565b5090565b90565b6111b880620001326000396000f3fe608060405234801561001057600080fd5b50600436106100f55760003560e01c80636d4ce63c11610097578063e367fc6a11610066578063e367fc6a14610571578063f3eabc071461064a578063f8362b0914610668578063fd5b86d0146106eb576100f5565b80636d4ce63c146103a9578063734628e9146103c757806391877e9c1461040d578063b6008926146104ee576100f5565b806320ce1a6a116100d357806320ce1a6a146101b25780633c7fc59d146101d057806360fe47b11461028c5780636b42cf4d146102ba576100f5565b80631720e2bf146100fa5780631840f0ca146101345780631a0c750c1461017a575b600080fd5b6101326004803603604081101561011057600080fd5b81019080803590602001909291908035151590602001909291905050506107b7565b005b6101606004803603602081101561014a57600080fd5b8101908080359060200190929190505050610804565b604051808215151515815260200191505060405180910390f35b6101b06004803603604081101561019057600080fd5b8101908080359060200190929190803590602001909291905050506108bd565b005b6101ba61092b565b6040518082815260200191505060405180910390f35b6101fc600480360360208110156101e657600080fd5b8101908080359060200190929190505050610931565b6040518085815260200184815260200180602001838152602001828103825284818151815260200191508051906020019080838360005b8381101561024e578082015181840152602081019050610233565b50505050905090810190601f16801561027b5780820380516001836020036101000a031916815260200191505b509550505050505060405180910390f35b6102b8600480360360208110156102a257600080fd5b8101908080359060200190929190505050610a3c565b005b610393600480360360408110156102d057600080fd5b81019080803590602001906401000000008111156102ed57600080fd5b8201836020820111156102ff57600080fd5b8035906020019184600183028401116401000000008311171561032157600080fd5b91908080601f016020809104026020016040519081016040528093929190818152602001838380828437600081840152601f19601f820116905080830192505050505050509192919290803573ffffffffffffffffffffffffffffffffffffffff169060200190929190505050610ab1565b6040518082815260200191505060405180910390f35b6103b1610b4b565b6040518082815260200191505060405180910390f35b6103f3600480360360208110156103dd57600080fd5b8101908080359060200190929190505050610b54565b604051808215151515815260200191505060405180910390f35b6104396004803603602081101561042357600080fd5b8101908080359060200190929190505050610b86565b60405180848152602001806020018373ffffffffffffffffffffffffffffffffffffffff1673ffffffffffffffffffffffffffffffffffffffff168152602001828103825284818151815260200191508051906020019080838360005b838110156104b1578082015181840152602081019050610496565b50505050905090810190601f1680156104de5780820380516001836020036101000a031916815260200191505b5094505050505060405180910390f35b61051a6004803603602081101561050457600080fd5b8101908080359060200190929190505050610c92565b6040518080602001828103825283818151815260200191508051906020019060200280838360005b8381101561055d578082015181840152602081019050610542565b505050509050019250505060405180910390f35b6106346004803603604081101561058757600080fd5b81019080803590602001906401000000008111156105a457600080fd5b8201836020820111156105b657600080fd5b803590602001918460018302840111640100000000831117156105d857600080fd5b91908080601f016020809104026020016040519081016040528093929190818152602001838380828437600081840152601f19601f82011690508083019250505050505050919291929080359060200190929190505050610d07565b6040518082815260200191505060405180910390f35b610652610d66565b6040518082815260200191505060405180910390f35b610670610d6c565b6040518080602001828103825283818151815260200191508051906020019080838360005b838110156106b0578082015181840152602081019050610695565b50505050905090810190601f1680156106dd5780820380516001836020036101000a031916815260200191505b509250505060405180910390f35b6107b56004803603606081101561070157600080fd5b81019080803590602001909291908035906020019064010000000081111561072857600080fd5b82018360208201111561073a57600080fd5b8035906020019184602083028401116401000000008311171561075c57600080fd5b919080806020026020016040519081016040528093929190818152602001838360200280828437600081840152601f19601f82011690508083019250505050505050919291929080359060200190929190505050610e11565b005b816006600084815260200190815260200160002060000181905550806006600084815260200190815260200160002060010160006101000a81548160ff0219169083151502179055505050565b600080600090506000809050606061081b85610c92565b905060008090505b815181101561089b576001151561084c83838151811061083f57fe5b6020026020010151610b54565b1515141561085d5783806001019450505b6000151561087d83838151811061087057fe5b6020026020010151610b54565b1515141561088e5782806001019350505b8080600101915050610823565b50818311156108b057600193505050506108b8565b600093505050505b919050565b600180016000828152602001908152602001600020600201829080600181540180825580915050906001820390600052602060002001600090919290919091505550600180016000828152602001908152602001600020600301600081548092919060010191905055505050565b60045481565b6000806060600080600180016000878152602001908152602001600020600001549050600060018001600088815260200190815260200160002060030154905060606001800160008981526020019081526020016000206001018054600181600116156101000203166002900480601f016020809104026020016040519081016040528092919081815260200182805460018160011615610100020316600290048015610a1f5780601f106109f457610100808354040283529160200191610a1f565b820191906000526020600020905b815481529060010190602001808311610a0257829003601f168201915b505050505090508783828496509650965096505050509193509193565b806000819055507ffa687fbbbd114f405c78850b508cd15ded5f4d9400cf4190a3093b0af68de8c13382604051808373ffffffffffffffffffffffffffffffffffffffff1673ffffffffffffffffffffffffffffffffffffffff1681526020018281526020019250505060405180910390a150565b600080600160020160006004548152602001908152602001600020905083816000019080519060200190610ae6929190611005565b50828160010160006101000a81548173ffffffffffffffffffffffffffffffffffffffff021916908373ffffffffffffffffffffffffffffffffffffffff16021790555060046000815480929190600101919050555060016004540391505092915050565b60008054905090565b6000806006600084815260200190815260200160002060010160009054906101000a900460ff16905080915050919050565b6000606060006060600160020160008681526020019081526020016000206000018054600181600116156101000203166002900480601f016020809104026020016040519081016040528092919081815260200182805460018160011615610100020316600290048015610c3b5780601f10610c1057610100808354040283529160200191610c3b565b820191906000526020600020905b815481529060010190602001808311610c1e57829003601f168201915b5050505050905060006001600201600087815260200190815260200160002060010160009054906101000a900473ffffffffffffffffffffffffffffffffffffffff16905085828294509450945050509193909250565b606080600180016000848152602001908152602001600020600201805480602002602001604051908101604052809291908181526020018280548015610cf757602002820191906000526020600020905b815481526020019060010190808311610ce3575b5050505050905080915050919050565b6000806001800160006004548152602001908152602001600020905083816001019080519060200190610d3b929190611005565b5082816000018190555060056000815480929190600101919050555060016005540391505092915050565b60055481565b606060016000018054600181600116156101000203166002900480601f016020809104026020016040519081016040528092919081815260200182805460018160011615610100020316600290048015610e075780601f10610ddc57610100808354040283529160200191610e07565b820191906000526020600020905b815481529060010190602001808311610dea57829003601f168201915b5050505050905090565b60011515610e1e84610804565b151514610e76576040517f08c379a000000000000000000000000000000000000000000000000000000000815260040180806020018281038252603a81526020018061114a603a913960400191505060405180910390fd5b6060600180016000858152602001908152602001600020600201805480602002602001604051908101604052809291908181526020018280548015610eda57602002820191906000526020600020905b815481526020019060010190808311610ec6575b50505050509050600080905060008090505b8251811015610fa7576000915060008090505b8551811015610f4c57858181518110610f1457fe5b6020026020010151848381518110610f2857fe5b60200260200101511415610f3f5760019250610f4c565b8080600101915050610eff565b50600015158215151415610f9a576007838281518110610f6857fe5b602002602001015190806001815401808255809150509060018203906000526020600020016000909192909190915055505b8080600101915050610eec565b506007600180016000878152602001908152602001600020600201908054610fd0929190611085565b50836001800160008581526020019081526020016000206002019080519060200190610ffd9291906110d7565b505050505050565b828054600181600116156101000203166002900490600052602060002090601f016020900481019282601f1061104657805160ff1916838001178555611074565b82800160010185558215611074579182015b82811115611073578251825591602001919060010190611058565b5b5090506110819190611124565b5090565b8280548282559060005260206000209081019282156110c65760005260206000209182015b828111156110c55782548255916001019190600101906110aa565b5b5090506110d39190611124565b5090565b828054828255906000526020600020908101928215611113579160200282015b828111156111125782518255916020019190600101906110f7565b5b5090506111209190611124565b5090565b61114691905b8082111561114257600081600090555060010161112a565b5090565b9056fe43616e6e6f742073706c69742067726f75702062656361757365206d656d626572732068617665206e6f7420766f74656420696e206661766f72a265627a7a72315820cde4b8be19790be70d61e34563a6fc30747e678087296a38f6631a1cdba075a164736f6c63430005100032",
  "source": "pragma solidity >=0.4.21 <0.7.0;\n\ncontract SimpleStorage {\n  uint storedData;\n\n  event LogSet(address sender, uint newValue);\n\n  function set(uint x) public {\n    storedData = x;\n    emit LogSet(msg.sender, x);\n  }\n\n  function get() public view returns (uint) {\n    return storedData;\n  }\n\n      struct Organization {\n        string organizationName;\n        mapping(uint => Group) groups;\n        mapping(uint => Member) members;\n    }\n\n    Organization thisOrganization;\n    \n    // @dev Sets serviceProvider to the address that instantiated the project\n    // @dev Sets the appropriate project details\n    // when going back to vscode: string memory organizationName, thisOrganization.name = organizationName\n\n    constructor()\n        public\n    {\n        thisOrganization.organizationName = \"Google\";\n    }\n    \n    function readOrganizationName() \n    public\n    view\n    returns(string memory)\n    {\n        return thisOrganization.organizationName;        \n    }\n    \n    struct Member {\n\t    string memberName;\n\t    address memberAddress;\n    }\n\n    // @dev Used to track member numbers\n    uint public memberIdGenerator = 1;\n\n    function createMember(string memory memberName, address memberAddress)\n        public\n        returns(uint)\n    {\n        // require that member address not already belong to a member\n        Member storage newMember = thisOrganization.members[memberIdGenerator];\n        newMember.memberName = memberName;\n        newMember.memberAddress = memberAddress;\n        memberIdGenerator++;\n        return memberIdGenerator - 1;\n    }\n\n    struct Group {\n        uint subGroupOf;\n        string groupName;\n        uint[] membersInGroup;\n        uint numberOfMembersInGroup;\n    }\n\n    // @dev Used to track group numbers\n    uint public groupIdGenerator = 1;\n    \n    function createGroup(string memory groupName, uint subGroupOf)\n        public\n        returns(uint)\n    {\n        Group storage newGroup = thisOrganization.groups[memberIdGenerator];\n        newGroup.groupName = groupName;\n        newGroup.subGroupOf = subGroupOf;\n        groupIdGenerator++;\n        return groupIdGenerator - 1;\n    }\n    \n    // @param number of member who will be joining\n    // @param number of group that member will join\n    function joinGroup(uint memberNumber, uint groupNumber)\n    public\n    {\n        thisOrganization.groups[groupNumber].membersInGroup.push(memberNumber);\n        thisOrganization.groups[groupNumber].numberOfMembersInGroup++;\n    }\n\n    function readGroup(uint groupNumber)\n    public\n    view\n    returns(uint, uint, string memory, uint) // group number, subGroupOf, group name, number of members in group\n    {\n        uint subGroupOf = thisOrganization.groups[groupNumber].subGroupOf;\n        uint numberOfMembersInGroup = thisOrganization.groups[groupNumber].numberOfMembersInGroup;\n        string memory groupName = thisOrganization.groups[groupNumber].groupName;\n        return (groupNumber, subGroupOf, groupName, numberOfMembersInGroup);\n    }\n\n    function readMember(uint memberNumber)\n    public\n    view\n    returns (uint, string memory, address)\n    {\n        string memory memberName = thisOrganization.members[memberNumber].memberName;\n        address memberAddress = thisOrganization.members[memberNumber].memberAddress;\n        return (memberNumber, memberName, memberAddress);\n    }\n    \n    \n    function readMemberListInGroup(uint groupNumber)\n    public\n    view\n    returns (uint[] memory)\n    {\n        uint[] memory membersInGroup = thisOrganization.groups[groupNumber].membersInGroup;\n        return(membersInGroup);\n    }\n    \n    struct Vote {\n        uint memberNumber;\n        bool yesIfTrue;\n    }\n    \n    mapping (uint => Vote) votes;\n    \n    //return error if member has already voted\n    function executeVote(uint memberNumber, bool yesIfTrue)\n    public\n    {\n        votes[memberNumber].memberNumber = memberNumber;\n        votes[memberNumber].yesIfTrue = yesIfTrue;\n    }\n    \n    // i think this is not needed in UI, just for testing\n    // return error if member has not voted\n    function readMemberVote(uint memberNumber)\n    public\n    view\n    returns (bool)\n    {\n        bool memberVote = votes[memberNumber].yesIfTrue;\n        return memberVote;\n    }\n\n    // uses for loop to count votes from votes mapping\n    // if majority in favor returns true\n    // called by splitGroup function\n    // i think this is not needed in UI, just for testing\n    function countVotes(uint groupNumber)\n    public\n    view\n    returns(bool)\n    {\n        uint yesVote = 0;\n        uint noVote = 0;\n        uint[] memory membersInGroup = readMemberListInGroup(groupNumber);\n        for (uint i = 0; i < membersInGroup.length; i++) {\n            if (readMemberVote(membersInGroup[i]) == true) {\n                yesVote++;\n            }\n            if (readMemberVote(membersInGroup[i]) == false) {\n                noVote++;\n            }\n            \n        }\n        if (yesVote > noVote) {\n            return true;\n        } else {\n            return false;\n        }\n    }\n      uint[] newOldArray; // state variable needs is global for solidity workaround\n    function splitGroup(uint oldGroupNumber, uint[] memory membersToSplit, uint newGroupNumber)\n        public\n    {\n        require(countVotes(oldGroupNumber) == true, \"Cannot split group because members have not voted in favor\");\n        uint[] memory oldArray = thisOrganization.groups[oldGroupNumber].membersInGroup;\n        //uint[] memory newArray = thisOrganization.groups[newGroupNumber].membersInGroup;\n        //uint[] memory newOldArray; // this array will replace membersInGroup in old group\n        bool found = false;\n        for (uint i=0; i < oldArray.length; i++) {\n            found = false;\n            for (uint j=0; j < membersToSplit.length; j++) {\n                if (oldArray[i] == membersToSplit[j]) {\n                    found = true;\n                    break;\n                }\n            }\n            if (found == false) {\n                newOldArray.push(oldArray[i]);\n            }\n        }\n        \n        thisOrganization.groups[oldGroupNumber].membersInGroup = newOldArray;\n        thisOrganization.groups[newGroupNumber].membersInGroup = membersToSplit;\n    }\n\n    \n\n}\n",
  "sourcePath": "/Users/noraliu/EthDenver-project/contracts/SimpleStorage.sol",
  "compiler": {
    "name": "solc",
    "version": "0.5.16+commit.9c3226ce.Emscripten.clang"
  },
  "schemaVersion": "3.0.23",
  "updatedAt": "2020-02-16T09:00:11.704Z",
  "networkType": "ethereum",
  "devdoc": {
    "methods": {}
  },
  "userdoc": {
    "methods": {}
  }
}